:100000000C942A000C9447000C9447000C94470071
:100010000C9447000C9447000C9447000C94470044
:100020000C9447000C9447000C9447000C94470034
:100030000C9447000C9447000C9447000C94470024
:100040000C9447000C9447000C9447000C94470014
:100050000C94470011241FBECFE5D4E0DEBFCDBF16
:1000600010E0A0E6B0E0ECE1F1E002C005900D92F6
:10007000A036B107D9F710E0A0E6B0E001C01D92AC
:10008000A036B107E1F70E9449000C948C000C9453
:1000900000008FEF87BB81BBEFE971E068E052E0C1
:1000A00045E03AE08AB188618AB980B58E6880BD42
:1000B000E9B970BD5F9BFECF2CB1822F90E05D9BB4
:1000C000FECF2CB98737910511F438BBEBCF8337BE
:1000D000910511F448BBE6CF8136910511F458BB68
:1000E000E1CF8436910511F468BBDCCF18BADACFC2
:1000F0008AB188618AB980B58E6880BD8FE989B977
:1001000081E080BD08955F9BFECF8CB190E00895A3
:0C0110005D9BFECF8CB90895F894FFCFE2
:00000001FF
