:100000000C942A000C9447000C9447000C94470071
:100010000C9447000C9447000C9447000C94470044
:100020000C9447000C9447000C9447000C94470034
:100030000C9447000C9447000C9447000C94470024
:100040000C9447000C9447000C9447000C94470014
:100050000C94470011241FBECFE5D4E0DEBFCDBF16
:1000600010E0A0E6B0E0E4EEF0E002C005900D92F2
:10007000A036B107D9F710E0A0E6B0E001C01D92AC
:10008000A036B107E1F70E9449000C9470000C946F
:1000900000001ABA88E084BB8FEF87BB54EB28E0DE
:1000A00048E73CE383B7896683BF89B390E08370F8
:1000B00090708130910511F43CBF04C082309105ED
:1000C00021F44CBF25BB28BB05C0039711F45CBFCE
:1000D000F9CF15BA18BAE6CF83B7896683BF0895FA
:0400E000F894FFCFC2
:00000001FF
