:100000000C942A000C9447000C9447000C94470071
:100010000C9447000C9447000C9447000C94470044
:100020000C9447000C9447000C9447000C94470034
:100030000C9447000C9447000C9447000C94470024
:100040000C9447000C9447000C9447000C94470014
:100050000C94470011241FBECFE5D4E0DEBFCDBF16
:1000600010E0A0E6B0E0E8E1F3E002C005900D92F8
:10007000A037B107D9F710E0A0E7B0E001C01D92AA
:10008000A037B107E1F70E9423010C948A010C9478
:10009000000082BB90989198929A8AEF90E0019725
:1000A000F1F79298089582BB909A9198929A8AEF6C
:1000B00090E00197F1F792980895282F207F22BBB6
:1000C00090989198929A2AEF30E0F9013197F1F7E0
:1000D000929890E044E0880F991F4A95E1F782BB1F
:1000E00090989198929AC9010197F1F79298C90155
:1000F0000197F1F70895282F207F22BB909A9198BD
:10010000929A2AEF30E0F9013197F1F7929890E056
:1001100054E0880F991F5A95E1F782BB909A919805
:10012000929AC9010197F1F79298C9010197F1F7E5
:100130000895CF93DF93EC0102C00E947B00899168
:100140008823D9F7DF91CF91089582E00E945D0066
:1001500088E20E945D008CE00E945D0081E00E94C8
:100160005D000895CF93DF93EC0184E00E945D0071
:100170000EC0CE016AE070E00E947601805D0E94B0
:100180007B00CE016AE070E00E947601EB012097CF
:1001900081F786E00E945D00DF91CF91089580E4B1
:1001A0000E945D0084E00E947B0084E00E947B004E
:1001B0008EE00E947B008FE10E947B008FE10E9415
:1001C0007B0080E00E947B0084E00E947B0080E056
:1001D0000E947B00089588E40E945D0084E00E94F4
:1001E0007B0084E00E947B008EE00E947B008FE118
:1001F0000E947B008FE10E947B0080E00E947B00D8
:1002000081E00E947B0080E00E947B00089580E5F1
:100210000E945D0084E00E947B0084E00E947B00DD
:100220008EE00E947B008FE10E947B008FE10E94A4
:100230007B0080E00E947B0080E10E947B0080E0E8
:100240000E947B000895FF920F931F93CF93DF933B
:100250008FEF81BB88E084BB0E94A50081E00E94F3
:100260005D00C9E1D0E068E0F62E04ED10E380EC1B
:100270000E945D0080E690E00E94990082E80E9462
:100280005D0080E00E947B000E94CF0088E893E13F
:10029000FE013197F1F70197D9F782E80E945D00DE
:1002A00081E00E947B000E94EB0088E893E1FE0160
:1002B0003197F1F70197D9F7F5BAC8010197F1F72E
:1002C00015BA82E80E945D0082E00E947B000E94D5
:1002D000070188E893E1FE013197F1F70197D9F71B
:1002E000F5BAC8010197F1F715BAC1CFAA1BBB1B1C
:1002F00051E107C0AA1FBB1FA617B70710F0A61B26
:10030000B70B881F991F5A95A9F780959095BC0146
:08031000CD010895F894FFCF20
:1003180042454C4C2049532052494E47494E4700CC
:00000001FF
