:100000000C942A000C9447000C9447000C94470071
:100010000C9447000C9447000C9447000C94470044
:100020000C9447000C9447000C9447000C94470034
:100030000C9447000C9447000C9447000C94470024
:100040000C9447000C9447000C9447000C94470014
:100050000C94470011241FBECFE5D4E0DEBFCDBF16
:1000600010E0A0E6B0E0E6E6F2E002C005900D92F6
:10007000A237B107D9F710E0A2E7B0E001C01D92A6
:10008000A237B107E1F70E94CF000C9431010C9424
:10009000000085BBA898A998AA9A8AEF90E00197DA
:1000A000F1F7AA98089585BBA89AA998AA9A8AEF09
:1000B00090E00197F1F7AA980895282F207F25BB9B
:1000C000A898A998AA9A2AEF30E0F9013197F1F798
:1000D000AA9890E044E0880F991F4A95E1F785BB04
:1000E000A898A998AA9AC9010197F1F7AA98C901F5
:1000F0000197F1F70895282F207F25BBA89AA9988A
:10010000AA9A2AEF30E0F9013197F1F7AA9890E026
:1001100054E0880F991F5A95E1F785BBA89AA998D2
:10012000AA9AC9010197F1F7AA98C9010197F1F7B5
:100130000895CF93DF93EC0102C00E947B00899168
:100140008823D9F7DF91CF91089582E00E945D0066
:1001500088E20E945D008CE00E945D0081E00E94C8
:100160005D000895CF93DF93EC0184E00E945D0071
:100170000EC0CE016AE070E00E941D01805D0E9409
:100180007B00CE016AE070E00E941D01EB01209728
:1001900081F786E00E945D00DF91CF910895CF93B3
:1001A000DF931ABA8FEF84BB80EC87B987EA86B9F0
:1001B0000E94A50087B187B9369A349BFECF349A46
:1001C000C4B1D5B182EC0E945D00CE010E94B200A4
:1001D000C93CD10530F480E80E945D0080E690E0E3
:1001E00014C0CE018C529140459730F480E80E94B3
:1001F0005D0086E690E009C0C059D1402B9740F4DD
:1002000080E80E945D008CE690E00E949900D2CFC9
:1002100081E00E945D00CECF80EC87B987EA86B985
:10022000089597B18770892B87B9369A349BFECF92
:10023000349A24B135B1C9010895AA1BBB1B51E101
:1002400007C0AA1FBB1FA617B70710F0A61BB70B46
:10025000881F991F5A95A9F780959095BC01CD01EB
:060260000895F894FFCFA1
:10026600424C41434B0042524F574E004752454580
:020276004E0038
:00000001FF
