:100000000C942A000C9447000C9447000C94470071
:100010000C9447000C9447000C9447000C94470044
:100020000C9447000C9447000C9447000C94470034
:100030000C9447000C9447000C9447000C94470024
:100040000C9447000C9447000C9447000C94470014
:100050000C94470011241FBECFE5D4E0DEBFCDBF16
:1000600010E0A0E6B0E0EEEDF4E002C005900D92E5
:10007000AA38B107D9F710E0AAE8B0E001C01D9294
:10008000AA38B107E1F70E9429010C946D020C9483
:1000900000003FEE2FED9FEB8FE74EC0C99903C0E4
:1000A00022E030E04EC0CA9903C023E030E049C0EE
:1000B000CB9903C024E030E044C025BBC89903C0FD
:1000C00025E030E03EC0C99903C026E030E039C0E9
:1000D000CA9903C027E030E034C0CB9903C028E0C0
:1000E00030E02FC095BBC89903C029E030E029C09B
:1000F000C99903C02AE030E024C0CA9903C02BE0AC
:1001000030E01FC0CB9903C02CE030E01AC085BBA3
:10011000C89903C02DE030E014C0C99903C02EE097
:1001200030E00FC0CA9903C02FE030E00AC0CB997D
:1001300003C020E130E005C035BBC899AFCF21E056
:1001400030E0C901089582BB90989198929A8AEF05
:1001500090E00197F1F79298089582BB909A919858
:10016000929A8AEF90E00197F1F792980895282FDC
:10017000207F22BB90989198929A2AEF30E0F90163
:100180003197F1F7929890E044E0880F991F4A95D3
:10019000E1F782BB90989198929AC9010197F1F783
:1001A0009298C9010197F1F70895282F207F22BB6B
:1001B000909A9198929A2AEF30E0F9013197F1F7ED
:1001C000929890E054E0880F991F5A95E1F782BB0E
:1001D000909A9198929AC9010197F1F79298C90162
:1001E0000197F1F70895CF93DF93EC0102C00E94CD
:1001F000D50089918823D9F7DF91CF91089582E0C6
:100200000E94B70088E20E94B7008CE00E94B7000D
:1002100081E00E94B7000895CF93DF93EC0184E062
:100220000E94B7000EC0CE016AE070E00E94590241
:10023000805D0E94D500CE016AE070E00E94590204
:10024000EB01209781F786E00E94B700DF91CF9104
:1002500008952F923F924F925F926F927F928F926A
:100260009F92AF92BF92CF92DF92EF92FF920F9345
:100270001F93CF93DF931ABA8FEF87BB81BB88E0C0
:1002800084BB83B7896683BF8FE08BBB08E0902E69
:1002900010EF212EB8E74B2EACE33A2EF9E16F2E8A
:1002A000712CE8EAAE2EE1E6BE2E72E0872E64E005
:1002B000562E0E94FF000E9449008C01813091055A
:1002C00049F498BA80E80E94B70080E690E00E9466
:1002D000F30010C08230910511F44CBE0FC0833082
:1002E000910519F484EB8CBF09C08430910511F499
:1002F0002CBE04C00530110511F43CBE95BAC801EE
:100300000697029720F00930110509F048C00E94B5
:10031000FF00CC24DD2481E80E94B700C6010E94C2
:100320000C0180E197E2F3013197F1F70197D9F7DA
:10033000EE24FF2485E80E94B700C7010E940C014B
:1003400080E197E2F3013197F1F70197D9F7C0E027
:10035000D0E089E80E94B700CE010E940C0180E144
:1003600097E2F3013197F1F70197D9F72196CC3352
:10037000D10579F781E00E94B7000894E11CF11CD7
:100380008CE3E816F104B1F681E00E94B70008940E
:10039000C11CD11C8DE0C816D10409F0BCCF0830B7
:1003A000110531F481E00E94B70018BA15BA27C0D0
:1003B0000A30110551F485E088BB80E80E94B7003F
:1003C00089E690E00E94F30025C00B30110549F446
:1003D00018BA80E80E94B70082E790E00E94F3001C
:1003E00025C00C30110559F485E588BBC50101977E
:1003F000F1F78AEA88BBC5010197F1F725C00D30F6
:10040000110541F48AE088BB80E80E94B7008AE7C2
:1004100090E009C00E30110549F488BA80E80E94C6
:10042000B70082E890E00E94F30043CF0F3011053F
:1004300059F48FE088BB84ED90E3FC013197F1F72C
:1004400018BA0197F1F735CF0031110509F031CF16
:1004500081E088BBC5010197F1F788BAC501019712
:10046000F1F758BAC5010197F1F798BAC50101979C
:10047000F1F780E188BBC5010197F1F780E288BB05
:10048000C5010197F1F780E488BBC5010197F1F739
:1004900080E888BBC5010197F1F718BA95BA84E2E4
:1004A00094EF0197F1F715BA04CF83B7896683BF3C
:1004B0000895AA1BBB1B51E107C0AA1FBB1FA617AB
:1004C000B70710F0A61BB70B881F991F5A95A9F7FD
:0E04D00080959095BC01CD010895F894FFCF62
:1004DE005249474854202020004241434B57415235
:1004EE00440053544F5020202000464F5257415243
:0A04FE0044004C4546542020200025
:00000001FF
