:100000000C942A000C9447000C9447000C94470071
:100010000C9447000C9447000C9447000C94470044
:100020000C9447000C9447000C9447000C94470034
:100030000C9447000C9447000C9447000C94470024
:100040000C9447000C9447000C9447000C94470014
:100050000C94470011241FBECFE5D4E0DEBFCDBF16
:1000600010E0A0E6B0E0EEEBF0E002C005900D92EB
:10007000A036B107D9F710E0A0E6B0E001C01D92AC
:10008000A036B107E1F70E9449000C945D000C9482
:1000900000001ABA8FE087BB88E084BB58E020E5F7
:1000A00033EC4AE0C89B07C018BA55BBC901019799
:0E00B000F1F715BAF7CF48BBF5CFF894FFCFA4
:00000001FF
