:100000000C942A000C9447000C9447000C94470071
:100010000C9447000C9447000C9447000C94470044
:100020000C9447000C9447000C9447000C94470034
:100030000C9447000C9447000C9447000C94470024
:100040000C9447000C9447000C9447000C94470014
:100050000C94470011241FBECFE5D4E0DEBFCDBF16
:1000600010E0A0E6B0E0E4E0F2E002C005900D92FE
:10007000AC36B107D9F710E0ACE6B0E001C01D9294
:10008000AC36B107E1F70E94B2000C9400010C9469
:10009000000085BBA898A998AA9A8AEF90E00197DA
:1000A000F1F7AA98089585BBA89AA998AA9A8AEF09
:1000B00090E00197F1F7AA980895282F207F25BB9B
:1000C000A898A998AA9A2AEF30E0F9013197F1F798
:1000D000AA9890E044E0880F991F4A95E1F785BB04
:1000E000A898A998AA9AC9010197F1F7AA98C901F5
:1000F0000197F1F70895282F207F25BBA89AA9988A
:10010000AA9A2AEF30E0F9013197F1F7AA9890E026
:1001100054E0880F991F5A95E1F785BBA89AA998D2
:10012000AA9AC9010197F1F7AA98C9010197F1F7B5
:100130000895CF93DF93EC0102C00E947B00899168
:100140008823D9F7DF91CF91089582E00E945D0066
:1001500088E20E945D008CE00E945D0081E00E94C8
:100160005D000895CF93DF938FEF84BB0E94A500BD
:10017000C8EAD1E680E80E945D0088E10E945D0047
:1001800080E690E00E949900CE010197F1F780ECA3
:100190000E945D0088E690E00E949900EBCFCF932B
:1001A000DF93EC0184E00E945D000EC0CE016AE0A6
:1001B00070E00E94EC00805D0E947B00CE016AE04E
:1001C00070E00E94EC00EB01209781F786E00E942E
:1001D0005D00DF91CF910895AA1BBB1B51E107C0C1
:1001E000AA1FBB1FA617B70710F0A61BB70B881FC7
:1001F000991F5A95A9F780959095BC01CD01089556
:04020000F894FFCFA0
:0C020400416D69746573680073616800E7
:00000001FF
