:100000000C942A000C9447000C9447000C94470071
:100010000C9447000C9447000C9447000C94470044
:100020000C9447000C9447000C9447000C94470034
:100030000C9447000C9447000C9447000C94470024
:100040000C9447000C9447000C9447000C94470014
:100050000C94470011241FBECFE5D4E0DEBFCDBF16
:1000600010E0A0E6B0E0E0E4F2E002C005900D92FE
:10007000A036B107D9F710E0A0E6B0E001C01D92AC
:10008000A036B107E1F70E94B2000C941E010C9457
:10009000000085BBA898A998AA9A8AEF90E00197DA
:1000A000F1F7AA98089585BBA89AA998AA9A8AEF09
:1000B00090E00197F1F7AA980895282F207F25BB9B
:1000C000A898A998AA9A2AEF30E0F9013197F1F798
:1000D000AA9890E044E0880F991F4A95E1F785BB04
:1000E000A898A998AA9AC9010197F1F7AA98C901F5
:1000F0000197F1F70895282F207F25BBA89AA9988A
:10010000AA9A2AEF30E0F9013197F1F7AA9890E026
:1001100054E0880F991F5A95E1F785BBA89AA998D2
:10012000AA9AC9010197F1F7AA98C9010197F1F7B5
:100130000895CF93DF93EC0102C00E947B00899168
:100140008823D9F7DF91CF91089582E00E945D0066
:1001500088E20E945D008CE00E945D0081E00E94C8
:100160005D0008951F93CF93DF938FEF87BB81BB13
:1001700084BB0E94A50013E3C8EAD1E68AB1886176
:100180008AB980B58E6880BD19B910BC5F9BFECF5F
:100190008CB15D9BFECF8CB980E80E945D0088E742
:1001A00090E00E949900CE010197F1F786E00E944D
:1001B0005D00E4CFCF93DF93EC0184E00E945D000B
:1001C0000EC0CE016AE070E00E940A01805D0E94CC
:1001D0007B00CE016AE070E00E940A01EB012097EB
:1001E00081F786E00E945D00DF91CF9108958AB18A
:1001F00088618AB980B58E6880BD83E389B910BCF7
:1002000008955F9BFECF8CB190E008955D9BFECF7B
:100210008CB90895AA1BBB1B51E107C0AA1FBB1FC5
:10022000A617B70710F0A61BB70B881F991F5A9582
:10023000A9F780959095BC01CD010895F894FFCF62
:00000001FF
