:100000000C942A000C9447000C9447000C94470071
:100010000C9447000C9447000C9447000C94470044
:100020000C9447000C9447000C9447000C94470034
:100030000C9447000C9447000C9447000C94470024
:100040000C9447000C9447000C9447000C94470014
:100050000C94470011241FBECFE5D4E0DEBFCDBF16
:1000600010E0A0E6B0E0E6EAF2E002C005900D92F2
:10007000A039B107D9F710E0A0E9B0E001C01D92A6
:10008000A039B107E1F70E94B2000C9451010C9421
:10009000000085BBA898A998AA9A8AEF90E00197DA
:1000A000F1F7AA98089585BBA89AA998AA9A8AEF09
:1000B00090E00197F1F7AA980895282F207F25BB9B
:1000C000A898A998AA9A2AEF30E0F9013197F1F798
:1000D000AA9890E044E0880F991F4A95E1F785BB04
:1000E000A898A998AA9AC9010197F1F7AA98C901F5
:1000F0000197F1F70895282F207F25BBA89AA9988A
:10010000AA9A2AEF30E0F9013197F1F7AA9890E026
:1001100054E0880F991F5A95E1F785BBA89AA998D2
:10012000AA9AC9010197F1F7AA98C9010197F1F7B5
:100130000895CF93DF93EC0102C00E947B00899168
:100140008823D9F7DF91CF91089582E00E945D0066
:1001500088E20E945D008CE00E945D0081E00E94C8
:100160005D000895DF92EF92FF920F931F93CF935C
:10017000DF938FEF87BB81BB84BB0E94A500E3E3C5
:10018000DE2EC8EAD1E678E0E72E62E0F62E05E042
:100190001AE08AB188618AB980B58E6880BDD9B805
:1001A00010BC5F9BFECF2CB1822F90E05D9BFECFF9
:1001B0002CB98737910539F418BB80E80E945D009F
:1001C00080E690E024C08337910539F408BB80E8CD
:1001D0000E945D0088E690E01AC08136910539F4EE
:1001E000F8BA80E80E945D0081E790E010C0843694
:1001F000910539F4E8BA80E80E945D008BE790E051
:1002000006C018BA80E80E945D0085E890E00E9470
:100210009900CE010197F1F7BCCFCF93DF93EC01AA
:1002200084E00E945D000EC0CE016AE070E00E9492
:100230003D01805D0E947B00CE016AE070E00E947B
:100240003D01EB01209781F786E00E945D00DF9180
:10025000CF9108958AB188618AB980B58E6880BDD2
:1002600083E389B910BC08955F9BFECF8CB190E009
:1002700008955D9BFECF8CB90895AA1BBB1B51E16D
:1002800007C0AA1FBB1FA617B70710F0A61BB70B06
:10029000881F991F5A95A9F780959095BC01CD01AB
:0602A0000895F894FFCF61
:1002A600464F5257415244004241434B57415244F4
:1002B60000524947485420202020004C45465420EF
:1002C600202020200053544F5020202020200000C2
:00000001FF
