:100000000C942A000C9447000C9447000C94470071
:100010000C9447000C9447000C9447000C94470044
:100020000C9447000C9447000C9447000C94470034
:100030000C9447000C9447000C9447000C94470024
:100040000C9447000C9447000C9447000C94470014
:100050000C94470011241FBECFE5D4E0DEBFCDBF16
:1000600010E0A0E6B0E0E8E1F3E002C005900D92F8
:10007000A439B107D9F710E0A4E9B0E001C01D929E
:10008000A439B107E1F70E94CF000C948A010C94C7
:10009000000082BB90989198929A8AEF90E0019725
:1000A000F1F79298089582BB909A9198929A8AEF6C
:1000B00090E00197F1F792980895282F207F22BBB6
:1000C00090989198929A2AEF30E0F9013197F1F7E0
:1000D000929890E044E0880F991F4A95E1F782BB1F
:1000E00090989198929AC9010197F1F79298C90155
:1000F0000197F1F70895282F207F22BB909A9198BD
:10010000929A2AEF30E0F9013197F1F7929890E056
:1001100054E0880F991F5A95E1F782BB909A919805
:10012000929AC9010197F1F79298C9010197F1F7E5
:100130000895CF93DF93EC0102C00E947B00899168
:100140008823D9F7DF91CF91089582E00E945D0066
:1001500088E20E945D008CE00E945D0081E00E94C8
:100160005D000895CF93DF93EC0184E00E945D0071
:100170000EC0CE016AE070E00E947601805D0E94B0
:100180007B00CE016AE070E00E947601EB012097CF
:1001900081F786E00E945D00DF91CF9108950F9373
:1001A0001F93CF93DF931ABA8FEF81BB80EC87B98F
:1001B00087EA86B90E94A50081E00E945D0008EAF6
:1001C00011E687B187B9369A349BFECF349AC4B111
:1001D000D5B1C83CD10560F483E80E945D00CE0132
:1001E0000E94B20080EC0E945D0080E690E053C067
:1001F000CE018A5D90400C9760F483E80E945D0018
:10020000CE010E94B20080EC0E945D008DE690E07D
:1002100042C0CE018B5F90400E9760F483E80E944D
:100220005D00CE010E94B20080EC0E945D0082E77A
:1002300090E031C0CE01855591400E9760F483E87F
:100240000E945D00CE010E94B20080EC0E945D0021
:1002500086E790E020C0CE018C5891400E9760F464
:1002600083E80E945D00CE010E94B20080EC0E94F3
:100270005D008AE790E00FC081E0C33CD80788F0BA
:1002800083E80E945D00CE010E94B20080EC0E94D3
:100290005D008EE790E00E949900C8010197F1F798
:1002A00090CF83E80E945D00CE010E94B20080ECF6
:1002B0000E945D0082E890E00E949900C8010197C9
:1002C000F1F781E00E945D007CCF80EC87B987EA7E
:1002D00086B9089597B18770892B87B9369A349B70
:1002E000FECF349A24B135B1C9010895AA1BBB1BB6
:1002F00051E107C0AA1FBB1FA617B70710F0A61B26
:10030000B70B881F991F5A95A9F780959095BC0146
:08031000CD010895F894FFCF20
:100318004E4F204F42535441434C455300313263B2
:100328006D0039636D0036636D0033636D003063B3
:100338006D00756E6B6E6F776E2064697374616E95
:0403480063650000E9
:00000001FF
