:100000000C942A000C9447000C9447000C94470071
:100010000C9447000C9447000C9447000C94470044
:100020000C9447000C9447000C9447000C94470034
:100030000C9447000C9447000C9447000C94470024
:100040000C9447000C9447000C9447000C94470014
:100050000C94470011241FBECFE5D4E0DEBFCDBF16
:1000600010E0A0E6B0E0E8E0F1E002C005900D92FB
:10007000A036B107D9F710E0A0E6B0E001C01D92AC
:10008000A036B107E1F70E9449000C9482000C945D
:1000900000000F931F938FEF87BB88E084BB01E0C4
:1000A00044E254EF12E028EA31E6B4E068E0A0E16F
:1000B000F0E2E0E470E808BBCA010197F1F718BB71
:1000C000C9010197F1F7B8BBC9010197F1F768BB06
:1000D000C9010197F1F7A8BBC9010197F1F7F8BB76
:1000E000C9010197F1F7E8BBC9010197F1F778BBA6
:1000F000C9010197F1F718BA65BBCA010197F1F779
:0801000015BAD9CFF894FFCF26
:00000001FF
