:100000000C942A000C9447000C9447000C94470071
:100010000C9447000C9447000C9447000C94470044
:100020000C9447000C9447000C9447000C94470034
:100030000C9447000C9447000C9447000C94470024
:100040000C9447000C9447000C9447000C94470014
:100050000C94470011241FBECFE5D4E0DEBFCDBF16
:1000600010E0A0E6B0E0E0EBF2E002C005900D92F7
:10007000A039B107D9F710E0A0E9B0E001C01D92A6
:10008000A039B107E1F70E94B2000C9456010C941C
:10009000000082BB90989198929A8AEF90E0019725
:1000A000F1F79298089582BB909A9198929A8AEF6C
:1000B00090E00197F1F792980895282F207F22BBB6
:1000C00090989198929A2AEF30E0F9013197F1F7E0
:1000D000929890E044E0880F991F4A95E1F782BB1F
:1000E00090989198929AC9010197F1F79298C90155
:1000F0000197F1F70895282F207F22BB909A9198BD
:10010000929A2AEF30E0F9013197F1F7929890E056
:1001100054E0880F991F5A95E1F782BB909A919805
:10012000929AC9010197F1F79298C9010197F1F7E5
:100130000895CF93DF93EC0102C00E947B00899168
:100140008823D9F7DF91CF91089582E00E945D0066
:1001500088E20E945D008CE00E945D0081E00E94C8
:100160005D000895EF92FF920F931F93CF93DF935B
:100170001ABA8FEF87BB81BB0E94A5007AE0E72EF9
:10018000C9E1D0E065E0F62E01E018E089B390E027
:100190008F7090708A30910581F4E8BA80E80E94EF
:1001A0005D0080E690E00E94990080E593ECFE01FE
:1001B0003197F1F70197D9F7E9CF8130910581F4B3
:1001C00018BB80E80E945D0088E690E00E949900DC
:1001D00080E593ECFE013197F1F70197D9F7D6CF7F
:1001E0008430910581F408BB80E80E945D0081E7BE
:1001F00090E00E94990080E593ECFE013197F1F7C1
:100200000197D9F7C3CF059781F4F8BA80E80E9427
:100210005D008BE790E00E94990080E593ECFE0181
:100220003197F1F70197D9F7B1CF18BA80E80E945A
:100230005D0087E890E00E94990080E593ECFE0164
:100240003197F1F70197D9F7A1CFCF93DF93EC0165
:1002500084E00E945D000EC0CE016AE070E00E9462
:100260004201805D0E947B00CE016AE070E00E9446
:100270004201EB01209781F786E00E945D00DF914B
:10028000CF910895AA1BBB1B51E107C0AA1FBB1F3A
:10029000A617B70710F0A61BB70B881F991F5A9512
:1002A000A9F780959095BC01CD010895F894FFCFF2
:1002B000464F5257415244004C454654202020207E
:1002C00000524947485420202020005245564552AC
:1002D0005345202020200053544F50202020200040
:00000001FF
