:100000000C942A000C9447000C9447000C94470071
:100010000C9447000C9447000C9447000C94470044
:100020000C9447000C9447000C9447000C94470034
:100030000C9447000C9447000C9447000C94470024
:100040000C9447000C9447000C9447000C94470014
:100050000C94470011241FBECFE5D4E0DEBFCDBF16
:1000600010E0A0E6B0E0E4E1F1E002C005900D92FE
:10007000A036B107D9F710E0A0E6B0E001C01D92AC
:10008000A036B107E1F70E9449000C9488000C9457
:1000900000008FEF81BB87BB8AB188618AB980B5C8
:1000A0008E6880BD8FE989B981E080BD58E041E06C
:1000B0003AE025E05F9BFECF8CB190E0863691055B
:1000C00011F428BBF7CF8236910511F438BBF2CF7B
:1000D0008C36910511F448BBEDCF8237910511F4B0
:1000E00058BBE8CF18BAE6CF8AB188618AB980B523
:1000F0008E6880BD8FE989B981E080BD08955F9BDE
:10010000FECF8CB190E008955D9BFECF8CB9089531
:04011000F894FFCF91
:00000001FF
