:100000000C942A000C9447000C9447000C94470071
:100010000C9447000C9447000C9447000C94470044
:100020000C9447000C9447000C9447000C94470034
:100030000C9447000C9447000C9447000C94470024
:100040000C9447000C9447000C9447000C94470014
:100050000C94470011241FBECFE5D4E0DEBFCDBF16
:1000600010E0A0E6B0E0E2E0F2E002C005900D9200
:10007000A036B107D9F710E0A0E6B0E001C01D92AC
:10008000A036B107E1F70E94A3000C94FF000C9486
:1000900000003FEE2FED9FEB8FE74EC0C99903C0E4
:1000A00022E030E04EC0CA9903C023E030E049C0EE
:1000B000CB9903C024E030E044C022BBC89903C000
:1000C00025E030E03EC0C99903C026E030E039C0E9
:1000D000CA9903C027E030E034C0CB9903C028E0C0
:1000E00030E02FC092BBC89903C029E030E029C09E
:1000F000C99903C02AE030E024C0CA9903C02BE0AC
:1001000030E01FC0CB9903C02CE030E01AC082BBA6
:10011000C89903C02DE030E014C0C99903C02EE097
:1001200030E00FC0CA9903C02FE030E00AC0CB997D
:1001300003C020E130E005C032BBC899AFCF21E059
:1001400030E0C9010895EF92FF920F931F931ABAFE
:100150008FEF87BB81BB8FE08BBB9AE0E92E88E0F5
:10016000F82E02E015E00E9449008130910511F45B
:1001700018BA0FC08230910511F4E8BA0FC083306D
:10018000910511F418BA0FC08430910511F418BA12
:100190000FC08530910511F418BA0FC08630910553
:1001A00011F418BA0FC08730910511F4F8BA0FC0D6
:1001B0008830910511F418BA0FC08930910511F4F7
:1001C00008BB0FC08A30910511F418BB0DC08B30ED
:1001D000910511F418BA0BC08C30910511F418BABE
:1001E00009C08D30910549F08E30910531F08F3086
:1001F000910519F0409709F0B6CF18BAB4CFF8942A
:02020000FFCF2E
:00000001FF
