:100000000C942A000C9447000C9447000C94470071
:100010000C9447000C9447000C9447000C94470044
:100020000C9447000C9447000C9447000C94470034
:100030000C9447000C9447000C9447000C94470024
:100040000C9447000C9447000C9447000C94470014
:100050000C94470011241FBECFE5D4E0DEBFCDBF16
:1000600010E0A0E6B0E0E2E6F2E002C005900D92FA
:10007000AA38B107D9F710E0AAE8B0E001C01D9294
:10008000AA38B107E1F70E94B2000C942F010C943A
:10009000000082BB90989198929A8AEF90E0019725
:1000A000F1F79298089582BB909A9198929A8AEF6C
:1000B00090E00197F1F792980895282F207F22BBB6
:1000C00090989198929A2AEF30E0F9013197F1F7E0
:1000D000929890E044E0880F991F4A95E1F782BB1F
:1000E00090989198929AC9010197F1F79298C90155
:1000F0000197F1F70895282F207F22BB909A9198BD
:10010000929A2AEF30E0F9013197F1F7929890E056
:1001100054E0880F991F5A95E1F782BB909A919805
:10012000929AC9010197F1F79298C9010197F1F7E5
:100130000895CF93DF93EC0102C00E947B00899168
:100140008823D9F7DF91CF91089582E00E945D0066
:1001500088E20E945D008CE00E945D0081E00E94C8
:100160005D000895EF92FF920F931F931ABA8FEFDD
:1001700087BB81BB0E94A5007AE0E72E65E0F62EE2
:1001800002E018E089B390E08F70907082309105A2
:1001900039F4E8BA80E80E945D0080E690E026C06D
:1001A0008430910539F418BB80E80E945D0088E630
:1001B00090E01CC08530910539F418BA80E80E949F
:1001C0005D0080E790E012C08630910539F408BBED
:1001D00080E80E945D0088E790E008C0089749F435
:1001E000F8BA80E80E945D0081E890E00E949900E2
:1001F000C9CF18BA81E00E945D00C4CFCF93DF93CE
:10020000EC0184E00E945D000EC0CE016AE070E067
:100210000E941B01805D0E947B00CE016AE070E0BD
:100220000E941B01EB01209781F786E00E945D0090
:10023000DF91CF910895AA1BBB1B51E107C0AA1FF4
:10024000BB1FA617B70710F0A61BB70B881F991F77
:100250005A95A9F780959095BC01CD010895F89421
:02026000FFCFCE
:10026200464F5257415244004C45465420202000EC
:1002720053544F50202020005249474854202020F8
:0A028200004241434B574152440033
:00000001FF
