:100000000C942A000C9447000C9447000C94470071
:100010000C9447000C9447000C9447000C94470044
:100020000C9447000C9447000C9447000C94470034
:100030000C9447000C9447000C9447000C94470024
:100040000C9447000C9447000C9447000C94470014
:100050000C94470011241FBECFE5D4E0DEBFCDBF16
:1000600010E0A0E6B0E0E2E7F2E002C005900D92F9
:10007000A036B107D9F710E0A0E6B0E001C01D92AC
:10008000A036B107E1F70E94CF000C9437010C9421
:10009000000082BB90989198929A8AEF90E0019725
:1000A000F1F79298089582BB909A9198929A8AEF6C
:1000B00090E00197F1F792980895282F207F22BBB6
:1000C00090989198929A2AEF30E0F9013197F1F7E0
:1000D000929890E044E0880F991F4A95E1F782BB1F
:1000E00090989198929AC9010197F1F79298C90155
:1000F0000197F1F70895282F207F22BB909A9198BD
:10010000929A2AEF30E0F9013197F1F7929890E056
:1001100054E0880F991F5A95E1F782BB909A919805
:10012000929AC9010197F1F79298C9010197F1F7E5
:100130000895CF93DF93EC0102C00E947B00899168
:100140008823D9F7DF91CF91089582E00E945D0066
:1001500088E20E945D008CE00E945D0081E00E94C8
:100160005D000895CF93DF93EC0184E00E945D0071
:100170000EC0CE016AE070E00E942301805D0E9403
:100180007B00CE016AE070E00E942301EB01209722
:1001900081F786E00E945D00DF91CF910895CF92B4
:1001A000DF92EF92FF920F931F93CF93DF938FEF26
:1001B00081BB69E1C62ED12C0E94A500EE24FF244C
:1001C00081E80E945D00C7010E94B20080E197E2D1
:1001D000F6013197F1F70197D9F700E010E085E8D3
:1001E0000E945D00C8010E94B20080E197E2F60122
:1001F0003197F1F70197D9F7C0E0D0E089E80E9484
:100200005D00CE010E94B20080E197E2F6013197D5
:10021000F1F70197D9F72196CC33D10579F781E031
:100220000E945D000F5F1F4F0C331105C1F681E086
:100230000E945D000894E11CF11C8DE0E816F104B9
:1002400009F0BECFB9CFAA1BBB1B51E107C0AA1F43
:10025000BB1FA617B70710F0A61BB70B881F991F67
:100260005A95A9F780959095BC01CD010895F89411
:02027000FFCFBE
:00000001FF
