:100000000C942A000C9447000C9447000C94470071
:100010000C9447000C9447000C9447000C94470044
:100020000C9447000C9447000C9447000C94470034
:100030000C9447000C9447000C9447000C94470024
:100040000C9447000C9447000C9447000C94470014
:100050000C94470011241FBECFE5D4E0DEBFCDBF16
:1000600010E0A0E6B0E0E4ECF0E002C005900D92F4
:10007000A036B107D9F710E0A0E6B0E001C01D92AC
:10008000A036B107E1F70E9449000C9460000C947F
:1000900000008FEF87BB5AEA29E130E045E558BB05
:1000A00080E197E2F9013197F1F70197D9F748BB61
:1000B00080E197E2F9013197F1F70197D9F7EFCF96
:0400C000F894FFCFE2
:00000001FF
